:020000040800F2
:1000000058E700207102000841B200086D9800080E
:10001000E7B100081B18000829F0000800000000E4
:1000200000000000000000000000000061C60008A1
:10003000412400080000000085B4000889C60008BB
:100040008B0200088B0200088B0200088B0200085C
:10005000E52900088B0200088B0200088B020008CB
:100060008B02000843240008492400088B02000882
:10007000D5200008E1200008ED200008F920000844
:100080008B0200088B0200088B0200088B0200081C
:10009000F51B00088B0200088B0200084F240008A3
:1000A0008B0200088B0200088B0200088B020008FC
:1000B0008B0200088B02000831C700088B02000881
:1000C0008B0200087D98000871980008CDC40008D4
:1000D000D9C4000831D300088B0200083DD30008C2
:1000E0008B0200088B0200088B0200088B020008BC
:1000F0008B02000865C700088B0200080521000874
:100100008B0200088B0200088B0200088B0200089B
:100110008B0200088B0200083DC7000859C7000881
:10012000112100088B0200081D2100082921000868
:10013000352100088B0200088B0200088B020008A2
:10014000011C00088B0200088B02000845B2000861
:10015000412100084D2100085921000881D30008E1
:1001600095980008899800088B0200088B02000807
:100170008B0200088B0200088B02000800000000C0
:100180008B0200088B02000800F002F800F060F813
:100190000AA090E8000C82448344AAF10107DA45E2
:1001A00001D100F055F8AFF2090EBAE80F0013F0D4
:1001B000010F18BFFB1A43F001031847D0240100B8
:1001C000F02401000A444FF0000C10F8013B13F03A
:1001D000070408BF10F8014B1D1108BF10F8015BA0
:1001E000641E05D010F8016B641E01F8016BF9D193
:1001F00013F0080F1EBF10F8014BAD1C0C1B09D1EA
:100200006D1E58BF01F801CBFAD505E014F8016B5B
:1002100001F8016B6D1EF9D59142D6D370470000ED
:100220000023002400250026103A28BF78C1FBD8FF
:10023000520728BF30C148BF0B6070471FB511F08F
:10024000F0FD9DE8030000F0FFF91FBD10B510BDE3
:1002500000F0B6FA1146FFF7F1FF10F05FF900F079
:10026000D4FA03B4FFF7F2FF03BC00F005FB000073
:100270000948804709480047FEE7FEE7FEE7FEE73A
:10028000FEE7FEE7FEE7FEE7FEE7FEE70448054976
:10029000054A064B7047000021C700088901000885
:1002A0005847002058E70020589700205897002012
:1002B00070B5A0FB0140B4F1805170F1000024BF83
:1002C000002070BD204600F0EEF905001CBF21465D
:1002D00000F023FA284670BD70B50446051F00F0F3
:1002E00097F90068002C14BF446870BD002C18BF3B
:1002F000AC423CBF20466468F8D301680A18AA42A1
:1003000018BF456003D12A6805461144016028687A
:100310004119A1421CBF6C6070BD616869602168B1
:100320000844286070BD70B50D460646041F00F0F5
:100330006FF9D0F800C0C5B1E6B105F10B0020F0AF
:100340000703AB423CBF002070BD2068984238BF15
:10035000DCF8042013D3C11A08292FD3E01840F881
:10036000041B2360FFF7B8FF28E03046FFF7B4FF17
:10037000002070BD2846BDE8704000F094B9002A06
:1003800018BFA2423CBF94465268F8D3011991426B
:1003900016D111680844984212D3C11A08293CBFEB
:1003A0002060506808D35168E018416021681268E5
:1003B0001144C91A01602360CCF80400201D70BDEF
:1003C000181F00F070F9050007D021680A1F211DD1
:1003D00000F0C1F8201DFFF77FFF284670BD53EAEB
:1003E000020C00F069802DE9F04B4FF00006002B65
:1003F0001FBFB3FA83F503FA05F424FA05F65E404D
:1004000012BF1643B2FA82F502FA05F4C5F12005CF
:100410001EBF22FA05FC44EA0C04203556EA044CBF
:100420004FEA144418BF641C4FF000084FF0000955
:10043000904271EB030C39D3002919BFB1FA81F74F
:1004400001FA07F6B0FA80F700FA07F6C7F12007BD
:100450001EBF20FA07FC46EA0C062037B6FBF4FC68
:10046000A7EB0507103F07F01F0BCBF120060CFA96
:100470000BFB2CFA06F644BFB3460026202FA4BF80
:100480005E464FF0000B5BEA060C08BF4FF0010B15
:1004900019EB0B09ABFB027C48EB0608C01B06FB03
:1004A00002CC0BFB03CC71EB0C01C1E70B460246FF
:1004B00041464846BDE8F08B13B54FF000004FF0C1
:1004C0000001AFF30080BDE81C407047032A40F2F2
:1004D000308010F0030C00F0158011F8013BBCF1E6
:1004E000020F624498BF11F801CB00F8013B38BFFE
:1004F00011F8013BA2F1040298BF00F801CB38BF0C
:1005000000F8013B11F0030300F02580083AC0F029
:10051000088051F8043B083A51F804CBA0E80810D1
:10052000F5E7121D5CBF51F8043B40F8043BAFF304
:100530000080D20724BF11F8013B11F801CB48BF5E
:1005400011F8012B24BF00F8013B00F801CB48BF94
:1005500000F8012B704710B5203AC0F00B80B1E8CD
:100560001850203AA0E81850B1E81850A0E81850E8
:10057000BFF4F5AF5FEA027C24BFB1E81850A0E8F1
:10058000185044BF18C918C0BDE810405FEA827C0B
:1005900024BF51F8043B40F8043B08BF7047D20722
:1005A00028BF31F8023B48BF11F8012B28BF20F8C3
:1005B000023B48BF00F8012B70474FF0000200B526
:1005C000134694469646203922BFA0E80C50A0E876
:1005D0000C50B1F12001BFF4F7AF090728BFA0E824
:1005E0000C5048BF0CC05DF804EB890028BF40F8F0
:1005F000042B08BF704748BF20F8022B11F0804F32
:1006000018BF00F8012B7047704770477047000013
:100610000048704700470020704770477047704798
:1006200038B504460A4600206946AFF3008000282A
:1006300008BF38BD02460099204600F0A0F801200E
:1006400038BD012000F0B5B8F8B5AFF3008005461D
:1006500000200C46102000BF0646A819A0420DD964
:10066000324669460020AFF30080070008BF00F063
:10067000A0F80098A04218BF0546C419FFF7C8FFAC
:1006800005600746F01D20F007004619284600F0D7
:100690006FF8B44208BFF8BDA21B31463868BDE808
:1006A000F84000F06CB870B50646FFF7B1FF05687A
:1006B00006F10B0020F00704B4429CBF002070BD7F
:1006C0002B466A68BAB11068A04210D304F1080141
:1006D00088423CBF5068586007D351681019416088
:1006E0001168091B016058601460101D70BD13462D
:1006F0005268002AE7D121462846FFF791FF0028DB
:10070000DED170BD10B500F02FF8006810BD10B537
:10071000044600F029F8046010BD4FF000020429DF
:10072000C0F0128010F0030C3FF449AFCCF1040C80
:10073000BCF1020F18BF00F8012BA8BF20F8022B54
:10074000A1EB0C01FFF73BBF5FEAC17C24BF00F8BF
:10075000012B00F8012B48BF00F8012B7047000067
:1007600000487047F846002000487047F8460020CF
:1007700000210160C0E90110704710207047034656
:1007800040688C46002818BF88423CBF034640683A
:10079000F8D318681844884207D00CF1030020F001
:1007A0000700001D411A521A0146081D0A60FFF792
:1007B00093BD10B500F038F8BDE8104000F02EB839
:1007C0007546FFF7CDFFAE4605006946534620F05B
:1007D0000700854618B020B5FFF758FDBDE820405A
:1007E0004FF000064FF000074FF000084FF0000BED
:1007F00021F00701AC46ACE8C009ACE8C009ACE8A0
:10080000C009ACE8C0098D46704710B50446AFF387
:1008100000802046BDE81040FFF723BD002801D02E
:1008200000F02AB87047000010B5012805D000215B
:1008300003A000F028F8012010BD09A1F8E700008E
:1008400053494752544D454D3A204F7574206F66B9
:100850002068656170206D656D6F72790000000021
:100860003A2048656170206D656D6F727920636F05
:10087000727275707465640001491820ABBEFEE7A2
:1008800026000200704770B505460C460A2000E0BD
:100890006D1C00F011F835B128780028F8D102E07D
:1008A000641C00F009F814B120780028F8D1BDE8E4
:1008B00070400A20AFF3008008B569468DF800004B
:1008C0000320ABBE08BD0000F0EE401A31EEE00A96
:1008D000B5EEC00AF1EE10FA01DD012008E0B5EE38
:1008E000C00AF1EE10FA02D24FF0FF3000E0002013
:1008F00000EE100AB8EEC02AB0EE600A02EE010A5D
:1009000070EE610A60EE820AF5EEC00AF1EE10FAAE
:1009100001DBB0EE610A704780EE201ABDEEC11A0D
:10092000B8EEC11A01EE600A704710B504462DED0D
:10093000048BB0EE408AF7EE008A18EE100A0EF033
:10094000B1FB20B918EE100A0EF09AFB38B1DF495E
:10095000012008709FEDDE0ABDEC048B10BD002C59
:1009600024DA604210F0A3FE41EC190B18EE100AD5
:1009700011F0E6F941EC100BB0EE491AF0EE691AED
:100980000EF00EFE53EC102B9FEDD20B51EC100B22
:1009900010F006FD10F016FC00EE100ADCE7E00790
:1009A00001D068EE888A28EE088A6410002CF6D1FF
:1009B000B0EE680AD0E710B510EE100A11F0C0F9D9
:1009C00041EC100B0EF040FC51EC100B10F0FAFB58
:1009D00000EE100A10BD70B52DED028BB0EE408A0E
:1009E00018EE100A0EF05EFBB84C0125DFEDB88A58
:1009F00020B918EE100A0EF043FB08B1257016E07E
:100A0000B5EEC08AF1EE10FA07D8B5EEC08AF1EE65
:100A100010FAF3D30220207009E018EE100AB0F1AA
:100A20007E5F04D00024B2EE040AAC4909E0B0EEC7
:100A3000680ABDEC028B70BDC8EE000A641CB0EE03
:100A4000608A18EE100A8842F6DCA54918EE100AF2
:100A5000884203DC28EE008A641EF7E7B0EE480AFD
:100A600010F016F900EE904AF8EEE00A9FED9D1A9C
:100A700010EE810ADDE770B52DED048BF0EE408AB3
:100A8000B0EE608A18EE900A0EF00CFB8F4D012438
:100A90009FED8F9A20B918EE900A0EF0F1FA08B186
:100AA0002C7015E018EE100A0EF0FCFA0028F7D1B1
:100AB00018EE100A0EF0E4FA0028F1D1F5EEC08A23
:100AC000F1EE10FA09D1B5EEC08AF1EE10FAE7D0D6
:100AD000B0EE490ABDEC048B70BDB0EE680AFFF7BA
:100AE0007AFF20EE080ABDEC048BBDE8704062E797
:100AF00010B52DED028BF0EE408AB0EE600AFFF7E4
:100B00006AFFB0EE408AB0EE680AFFF764FFC8EEF5
:100B1000000AB0EE600ABDEC028B10BD70B52DED81
:100B2000028BB0EE408A18EE100A0EF0BBFA674D49
:100B3000012420B918EE100A0EF0A2FA28B12C7088
:100B40009FED630ABDEC028B70BDB5EEC08AF1EE7D
:100B500010FA00D22C7018EE100AB6EE000A6249A4
:100B600068EE000AA1EB600000EE100AB7EE081A6A
:100B700020EE802AF0EE411A42EE401A21EE800A61
:100B800060EE800A00EEC01A21EE000ADAE710B526
:100B90002DED028BB0EE408A18EE100A0EF082FAAC
:100BA00020B918EE100A0EF06BFA38B1474901204F
:100BB00008709FED470ABDEC028B10BDB0EE480AED
:100BC000FFF7ACFFB7EE001AC1EE000AB0EE600A04
:100BD000F1E710B52DED028BB0EE408A18EE100A49
:100BE0000EF060FA20B918EE100A0EF049FA28B19A
:100BF000364901209FED360A08708CE7B0EE480AAE
:100C0000FFF7D9FEF0EE408AB1EE480AFFF7D3FEB7
:100C100038EEC00AF6EE000A20EE200A7BE710B597
:100C20002DED028BB0EE408A18EE100A0EF03AFA63
:100C300020B918EE100A0EF023FA28B1234901203A
:100C40009FED230A087066E7B0EE480AFFF7B3FE8F
:100C5000F0EE408AB1EE480AFFF7ADFE38EE800AAA
:100C6000F6EE000A20EE200A55E710B52DED028BB6
:100C7000B0EE408A18EE100A0EF014FA20B918EE01
:100C8000100A0EF0FDF928B1104901209FED100A5D
:100C9000087090E718EE100A11F052F841EC100BB2
:100CA0000EF0D2FA51EC100B10F08CFAF7EE000AAD
:100CB00000EE100AB0EE601AF0EE001A00EE001A14
:100CC00081EE810A30EEC00A75E70000FC010020C9
:100CD00000000000000000000000F03FCDCCCC3D43
:100CE0000AD7233C8E5D1340DF59375F10B50446A9
:100CF0004B48416821F440314160416862681143CA
:100D000041602068416821F4807141602068416839
:100D1000226941EA022141602068416821F0407166
:100D2000416020684168A268114341602068816881
:100D300021F40061816020688168E268114381606C
:100D4000A06A6FF07061C8422068816821F070610C
:100D50008160206881680CD0A26A1143816020689C
:100D6000816821F04051816020688168E26A114306
:100D700001E021F0405181602068816821F002018A
:100D8000816020688168227E41EA4201816094F896
:100D9000200000283FD0606A401E072804D94FF485
:100DA000F56120A00FF050FB2068416841F400611C
:100DB00041602068416821F46041416020684168D9
:100DC000264B626A03EB4232114341602068C16ADC
:100DD00021F47001C1622068C16AA28B204B03EB31
:100DE00002521143C1622068816821F40071816060
:100DF0002068816894F8302041EA422181602068AF
:100E0000816821F48061816020688168626941EABB
:100E10008221816010BD2068416821F40061D4E71F
:100E2000002301402E2E2F447269766572732F5372
:100E3000544D3332463478785F48414C5F44726990
:100E40007665722F5372632F73746D333266347804
:100E5000785F68616C5F6164632E630000E0FFFF90
:100E60000000F0FF70B50D462DED028BB7EE008A45
:100E700090ED001A90ED010AF0EE008A61EE011A81
:100E8000F0EE480A044640EE001A51EEA80AD0EDF2
:100E9000031A21EE211AD0ED021A00EE211A21EEDA
:100EA000280A0FF045FC85ED020A94ED001A94ED36
:100EB000030AF0EE480A61EE011A40EE001A51EE04
:100EC000A80AD4ED011A21EE211AD4ED021A01EE7E
:100ED000801A21EE280A0FF02BFC85ED000A94ED14
:100EE000010AD4ED030A94ED021A20EE200AD4ED93
:100EF000000A00EEC10AF8EE000A20EE200A0EF009
:100F00000DF985ED010ABDEC028B70BD70B50024B2
:100F1000DDE90456C4600461446144628462C462D1
:100F200004634463DFED150A8463C0ED150ADFED49
:100F3000140AC0ED160ADFED130AC0ED170ADFED43
:100F4000120AC0ED000AC0ED020AC0ED010A80EDF0
:100F5000140AB7EE000A80ED0F0AC0ED100AC0EDCA
:100F6000110A9FED0A0AC0ED120A80ED130A056707
:100F7000C0E91813C0E91A2670BD0000B10B123A7F
:100F80003B7EB9BBCEFB7FBA00000000AA371D41F3
:100F90002DE9F041836E044600F1240700F10C06B0
:100FA0001BB13A463146606E9847226F04F1300516
:100FB0001AB12946E06E904707E09FED330A84EDB1
:100FC0000C0A84ED0D0A84ED0E0A94ED090AD4EDA5
:100FD000150A2E482B4630EE600A3A46314684ED1B
:100FE000090A94ED0A0AD4ED160A30EE600A84ED7F
:100FF0000A0A94ED0B0AD4ED170A30EE600A84ED6C
:101000000B0A94ED130A80ED000A04F13C00D4F8B9
:1010100060C094ED140A0546E04721462846FFF7D4
:1010200021FF04F10C02294692EC030A184800F053
:1010300091FB1748D4ED130A90ED020A30EE601AC6
:101040009FED140A80ED021AD0ED000A94ED062AF5
:1010500060EE801ADFED100A42EE201AC4ED061A87
:10106000D0ED011A94ED072A61EE801A21EE000AF4
:1010700042EE201AC4ED071A94ED081A01EE200A78
:1010800084ED080ABDE8F0810000000000020020A5
:10109000242F00209A99193FCCCCCC3E2DE9F05F4B
:1010A0000C4682EA02114FF0050AB1FBFAF5074639
:1010B00089460AFB1591DDE90AB007EB81015FEA79
:1010C00003080D69228060612BD061884FF0807029
:1010D00000EB31204FEA306060800006410D20694E
:1010E000FFF721F906000CD1A07810F0FF0F08D00F
:1010F000387B882120F0FE000830387312A00FF0F2
:10110000A3F92661A1786FF0070202EBC1016FF02D
:10111000030346F80180A278216903EBC20241F87B
:1011200002B00DB908E00546A8690028FBD1A54228
:1011300000D0AC61BDE8F09FB9FBFAF20AFB129057
:1011400007EB80000461F5E72E2E5C53454D4C5CA7
:101150004D6964646C6577617265735C537973740F
:10116000656D5C6D6573736167652E6300000000DB
:101170002DE9F0410446143007460AF075FD802140
:10118000201D00F022FA5521201D00F01EFA5521E5
:10119000201D00F01AFA514D287038460AF06DFDF6
:1011A000012003F0FDF938460AF05EFD8021201D84
:1011B00000F00BFA5521201D00F007FA5521201DE3
:1011C00000F003FA287038460AF057FD012003F0BA
:1011D000E7F938460AF048FDB6227E21201D00F0CE
:1011E00002FA38460AF049FD502003F0D9F9384692
:1011F0000AF03AFD8021201D00F0E7F95521201D5D
:1012000000F0E3F95521201D00F0DFF92870384681
:101210000AF033FD012003F0C3F938460AF024FD3B
:101220008021201D00F0D1F95521201D00F0CDF9BD
:101230005521201D00F0C9F9287038460AF01DFD1F
:10124000012003F0ADF928781E2802D0FF20BDE868
:10125000F0810020214E6870183638460AF004FDEF
:10126000687800EB400081194A78315C201D00F05D
:10127000BAF938460AF001FD012003F091F9384629
:101280000AF0F2FC687800EB4000305C40F080012E
:10129000201D00F09AF95521201D00F096F95521E6
:1012A000201D00F092F9287038460AF0E6FC012073
:1012B00003F076F968782B7800EB400131444A78E6
:1012C0009A4203D08978AA781143A970401CC0B211
:1012D00068700628C1D30020B9E70000280100206B
:1012E0002DE9F04105461C3007460AF0BDFC464A90
:1012F0000021281D00F05CF938460AF0BEFC0120F0
:1013000003F04EF938460AF0AFFC3F4A0021281D91
:1013100000F04EF938460AF0B0FC012003F040F925
:1013200038460AF0A1FCB6221421281D00F05BF912
:1013300038460AF0A2FC502003F032F938460AF091
:1013400093FC314A0021281D00F032F938460AF09A
:1013500094FC012003F024F938460AF085FC2A4A5F
:101360000021281D00F024F938460AF086FC0120EF
:1013700003F016F9244C20780F2802D0FF20BDE896
:10138000F0810020204E60702A3638460AF06CFC4E
:10139000607800EB400081194A78315C281D00F02C
:1013A00022F938460AF069FC012003F0F9F83846C2
:1013B0000AF05AFC6078144A00EB4000315C281DAA
:1013C00000F0F6F838460AF058FC012003F0E8F87F
:1013D0006078227800EB40013144497891420BD08B
:1013E000401EC0B20849607000EB4000183108444C
:1013F000A17880780843A0706078401CC0B260700B
:101400000628C2D30020BAE72801002070B505469F
:10141000FFF7AEFE04462846FFF762FF204370BD8B
:101420002DE9F0470546143016460F4681460AF06E
:101430001BFC9221281D00F0C8F80623514A1221F6
:10144000281D00F0A1F848460AF017FC4D4CA4F105
:1014500010086078D8ED020A000201B2207801433A
:1014600000EE101A05F11C00B8EEC00A20EE200AAA
:1014700087ED000AE178A278090209B2114300EE73
:10148000101AD8ED020AB8EEC00A20EE200A87ED45
:10149000010A61792279090209B2114300EE101A9A
:1014A000A8F80410B8EEC00A20EE200A87ED020A60
:1014B00007460AF0D9FB082322460021281D00F028
:1014C00063F838460AF0D9FB20780F282CD1E07851
:1014D000D8ED030A000201B2A078014300EE101A11
:1014E000B8EEC00A20EE200A86ED000A6179227962
:1014F000090209B2114300EE101AD8ED030AB8EE42
:10150000C00A20EE200A86ED010AE179A2790902DB
:1015100009B2114300EE101AA8F80410B8EEC00A80
:1015200020EE200A86ED020A48460AF09DFBA22121
:10153000281D00F04AF80223124A2221281D00F03B
:1015400023F848460AF099FB20786178C00040EA09
:1015500051114046A8F80410B1F5806F02DBA1F5E7
:1015600000618180B8F90400B4EE001A00EE100AA0
:10157000F8EEC00AB3EE070A00EE810A85ED000A14
:10158000BDE8F0873801002070B51C4615460646B8
:1015900041F0800100F019F807E05521304600F0D5
:1015A00014F8641E05F8010BE4B2002CF5D170BDEF
:1015B00070B51446054641F0800100F006F855214B
:1015C000284600F002F8207070BD03B583B04FF4D8
:1015D0007A710091012301AA04A90AF043FC9DF845
:1015E000040005B000BD70B515460446FFF7EDFFD9
:1015F00029462046BDE87040FFF7E7BF10B504005C
:101600002DED048BF0EE608AB0EE409A03D1682194
:1016100047A00EF019FF39EE681A84ED061A616BC7
:10162000A9B3F0EE680AB0EE490A2046884700BF29
:1016300094ED090AD4ED000AD4ED061A94ED081AC7
:1016400000EEA10A70EE010A94ED050AB4EEE00A7C
:10165000F1EE10FA08D294ED040AB4EEE00AF1EECD
:1016600010FA01D3B0EE600A84ED0E0A94F8280057
:10167000012830D0022807D170EE600AD4ED0B1A91
:1016800000EEA11A84ED081ABDEC048B10BDFFE733
:1016900094ED010AB7EE002A21EE008A94ED080AC3
:1016A00030EE080A84ED080A94ED070AD4ED020A28
:1016B000D4ED091A31EE400A60EE200A94ED0C0ACE
:1016C00060EE800A32EE400A41EE800AC4ED090A5B
:1016D00084ED071AACE7B4EE600AF1EE10FAD3D04D
:1016E000F5EEC01A4FF0FF30F1EE10FA01DD0121E6
:1016F00007E0F5EEC01AF1EE10FA01D2014600E063
:101700000021F5EEC00AF1EE10FA01DD012005E03E
:10171000F5EEC00AF1EE10FA00D3002011FB00F044
:101720000028B1DD71EE480AC4ED080AACE70000FC
:101730002E2E5C53454D4C5C4D6964646C6577613D
:101740007265735C436F6E74726F6C5C5049442EAB
:1017500063000000F6EE001AD1ED022AB0EE613A05
:1017600091ED032A02EEE23A91ED004AB0EE615AA1
:1017700002EE423A63EE003A91ED013A63EE224AFC
:1017800044EE424A23EE022AB0EE003A04EE222A48
:1017900044EEA03A42EE013A23EE832A80ED002A7D
:1017A00091ED012AD1ED023A91ED004AD1ED032AE3
:1017B00062EE234A02EE425A44EE224A02EEE25A16
:1017C00063EEA22A64EE804A44EE422A45EE204AA5
:1017D00042EE814A24EE832A80ED012AD1ED012ACE
:1017E000D1ED033A91ED022A91ED004A62EEA34A4F
:1017F00062EE233A42EEE21A44EE424A44EE223AC4
:1018000042EE421A24EE800A03EEA00A01EE810A9B
:1018100020EE030A80ED020A7047FEE770B504006F
:1018200003D16D215CA00EF00FFE04F10C000AF054
:1018300013FA6178C0B201F001018142A07805D1AC
:101840000B2801D30B2003E0401C01E000B1401E37
:10185000A070C0B2062820783FD3C0F3021018B1A0
:10186000012819D002285FD103F002F96060607886
:10187000012101EB500161F347006070207820F0F6
:101880000F00801C2070A16909B12046884720788C
:1018900020F0700010307CE003F0EAF86168401A34
:1018A000B0F5FA7F40D9207801060BD420F00F0064
:1018B000801D2070A16A09B120468847207840F039
:1018C0008000207000F0F000C01D2070E16A002947
:1018D0002AD02046BDE870400847C0F30211002519
:1018E000012904D0022920D020F0F00051E003F0BB
:1018F000BFF8A060207820F00F00401C20706169C4
:1019000009B1204688472078010607D520F00F004E
:1019100008302070216B09B120468847207820F0DC
:10192000700020302070656070BD03F0A1F80146A2
:10193000A068091A9629F7D90028F5D02078010661
:101940001FD46178490809D001290CD0022920F060
:101950000F0011D0401D2070616A10E0B8210EA068
:101960000EF072FD0DE020F00F00C01C2070E16948
:1019700005E02046884704E0001D2070216A002908
:10198000F7D1A560607820F0FE006070207820F02C
:101990007000207070BD00002E2E5C53454D4C5CD5
:1019A000447269766572735C68616C5C62757474AC
:1019B0006F6E2E630000000070B50D46040003D169
:1019C0002D2116A00EF040FD2DB1012D03D02E21AA
:1019D00012A00EF039FD6178207865F3000120F047
:1019E0000F00207000206060A060A07021F0FE0158
:1019F0006170014604EB8102491C50610829F9DB42
:101A00000E496063086820B90C6070BDA042FCD02C
:101A10000846416B0029F9D1446370BD2E2E5C53FA
:101A2000454D4C5C447269766572735C68616C5CB0
:101A3000627574746F6E2E63000000002001002038
:101A4000054810B50468002C04D02046FFF7E6FED8
:101A5000646BF8E710BD0000200100201CB50446AF
:101A60000091ADF804308DF80620694600F0F2FCD4
:101A700008B101201CBD94F86801401C84F868017D
:101A800000201CBD01460848006807E0D0F85C2132
:101A90008A4205D0D0F86C21002A03D00028F5D165
:101AA00000F004B870470000240100207CB5044613
:101AB00002F0DEFFD4F8581188422BD9694620463F
:101AC00000F06EFC04F5AE7510B19FED130A1EE038
:101AD00094F86801401E84F8680104F5AC7402F0C3
:101AE000C7FFBDF8041008442060284600990AF09A
:101AF00049F99DF80600F6EE000A00EE100A9FED87
:101B0000071AB8EE400A60EE200A80EE810A2846E5
:101B10000AF0F6F87CBD0000000000000000C8429A
:101B2000F8B504460020C4F86C01C4F8580184F8E4
:101B300068011E4617460D46009004F11003272247
:101B40000821204608F068FB0E49086810B90C60AF
:101B500006E00846D0F86C110029FAD1C0F86C41B3
:101B6000094A0E21284607F0A7F804F5AE7033465F
:101B70003A46294604460AF089F82046BDE8F8406E
:101B80000AF02EB924010020851A000870B5044619
:101B900090F868010D46C0F12800062801DC0120FC
:101BA00070BD0A4641F27076642331462046FFF745
:101BB00055FF6423002231462046FFF74FFF642380
:101BC0002A4631462046FFF749FF6423002231466A
:101BD0002046FFF743FF64232A4631462046FFF79D
:101BE0003DFF6423002231462046FFF737FF0020E7
:101BF00070BD0000014801F0CDBC000000050020D0
:101C0000014801F0C7BC00006405002000207047B7
:101C10000020704710B50022044905480BF096FDDE
:101C2000044903480BF085FD002010BDD425002099
:101C3000CC110020D41D002010B5014603480BF044
:101C400078FD02480BF04EFD002010BDCC110020A5
:101C5000094A10B5D2F8BC22D2F814220AB10120E8
:101C600010BD0A46014604480BF070FDBDE8104067
:101C700001480BF0E5BD0000CC11002070B5354BDC
:101C800003222DED048B0021334800F029F9324C5A
:101C9000304BFC340622A0640021A4F1A80000F01F
:101CA0001FF9C4F88C002B4B04220021A4F154002E
:101CB00000F016F9C4F8D000274828499FED288A7B
:101CC00090F82C00DFED278A9FED279A31F910401C
:101CD000DFED269A654200EE105AF0EE482AB0EE8B
:101CE000681AB8EEC02A00EE104AF0EE490A204801
:101CF000F8EEC01AB0EE690A09F062FB01EE905AE4
:101D00001B48F0EE482AB8EEE12A01EE904AB0EE08
:101D1000681AF0EE490AF8EEE11AB0EE690A4430AA
:101D200009F04EFB01EE905AF0EE482AB0EE681A28
:101D3000F0EE490AB0EE690AB8EEE12ABDEC048B78
:101D400001EE904ABDE870400948F8EEE11A88308B
:101D500009F036BBB4390020302F0020462201089C
:101D60006F12833A0000000000007A4400007A43BA
:101D7000783000202DE9F04702F07AFE254C9622BB
:101D800040F2DC592168461AA0686FF09501414382
:101D900000EE101A20495043B8EEC00A00258846CC
:101DA00081EDDA0A00EE100AB8EEC00A81EDDB0A16
:101DB0009FED1A0A81EDDC0A05EB051108EB81079E
:101DC00008EB8500B96C90EDDA0A07F14C00D1ED13
:101DD000010AFFF713FC87ED220AB86C09F018FA24
:101DE0006D1C032DE8DB00226068012138B1012859
:101DF00003D14E4509D2801EA060BDE8F0874E4554
:101E000001D2A160F9E7616000E0626002F030FE9B
:101E10002060F2E7100200202C30002000009643E2
:101E200038B50A4604466946104600F0D7FEC0B2EF
:101E3000082847D10098DFED240A0178407809028C
:101E400009B20143480000EE100A2046B8EEC00A6D
:101E500020EE200ADFED1D0A20EE200A09F014FB17
:101E60000098DFED1B0A8178C278090209B211439C
:101E700000EE101AB8EEC00A20EE200ADFED150AB7
:101E800080EE201A84ED011A01794279090209B223
:101E9000114300EE101A94F82C100F4AB8EEC00A45
:101EA00002EB8101D1ED000A20EE200ADFED0B0AE2
:101EB00020EE200A84ED020A8079207404F13C00AF
:101EC0000AF0A8F838BD0000DB0F494000000039D7
:101ED000DB0FC940000070425022010817B7D1380B
:101EE0002DE9F8431F4615460E46040003D176211E
:101EF00036A00EF0A9FA1FB9772134A00EF0A4FA8B
:101F0000386818B9782131A00EF09EFA681E05F5E0
:101F10000078002E50D0012E4ED0022E13D0032E6A
:101F200006D0792129A00EF08FFA84F82C601AE0EF
:101F300084F82C60032803D9882124A00EF084FAA9
:101F40001FFA88F10AE084F82C60072803D984215D
:101F50001EA00EF079FA05F5017081B22346274ADA
:101F6000384609F01BFE04F1380229463046276343
:101F700000F06EFD6087216B214A60F31F41002055
:101F800002EB00131D688D421CD0DDB1401C80B2F5
:101F90000A28F5D3002363631A4B6422012104F15C
:101FA0003C00009409F0B0FF22461749104609F0A2
:101FB0001BF92046BDE8F88384F82C600728BFD9B8
:101FC0008021BAE702EB00100160E4E72E2E5C539B
:101FD000454D4C5C4D6964646C6577617265735CFA
:101FE000436F6D6D756E69636174696F6E735C4488
:101FF0006A695F4D6F746F722E630000211E0008C6
:10200000142E0020A52000080D20000810B50400A3
:102010002DED028B82B0B0EE408A03D1BC2115A019
:102020000EF012FABDEEC80A94F83830626B10EE6A
:10203000100A1A44010A117194F83820616B114496
:10204000487102F015FD616BC968884210D002F03A
:102050000FFD616B0823C86000200090D4E90C02DA
:10206000618F121D09F09DFD02B0BDEC028B10BD09
:102070000020F9E72E2E5C53454D4C5C4D6964649D
:102080006C6577617265735C436F6D6D756E6963C6
:102090006174696F6E735C446A695F4D6F746F72CF
:1020A0002E63000010B504462DED028B9FED088ACB
:1020B000B0EE480AFFF7AAFF84ED008A84ED018A9A
:1020C00084ED028A00202074BDEC028B10BD00005C
:1020D00000000000014801F0BFBF0000AC1000206C
:1020E000014801F0B9BF000084060020014801F05A
:1020F000B3BF0000E4080020014801F0ADBF0000BC
:1021000044090020014801F0A7BF0000E4060020B8
:10211000014801F0A1BF000024080020014801F09F
:102120009BBF00000C110020014801F095BF00008A
:1021300084080020014801F08FBF0000A0040020A7
:10214000014801F089BF00004C100020014801F057
:1021500083BF00006C110020014801F07DBF00002A
:10216000EC0F002001681823CAB2103AB2FBF3F258
:10217000054B6FF30901032A9B5CC36500D9091D58
:1021800081650846704700002622010810B5014607
:1021900000208B698A6A4FF0C07453B1B3F5005FB9
:1021A00015D072B1012A0CD0022A0AD0032A09D113
:1021B00004E01AB1012A06D0022A03D1C96AC90172
:1021C00000D5012010BDC96AA142FAD010BD002A75
:1021D000F7D0012AF2D0022AF3D0032AF3D010BD9F
:1021E00030B50468256825F480252560046863609F
:1021F0008368402B036803D099600068C26030BDDB
:102200009A600068C16030BD38B504460A460020B7
:102210004FF48061A06221806180A180E1806181B2
:10222000022121726172A081E0812082A074E07499
:1022300084F85C00009204F12C0014230322002196
:10224000054609F0B9FF2246094928460AF068F810
:10225000122204F1160128460AF008F8054B142250
:10226000012104F16000009409F04EFE38BD000029
:10227000A32200087F23000800214FF480628162BE
:10228000028042808280C2804281022202724272B7
:102290008181C18101828174C17481822C3009F0F5
:1022A0004BBF10B5446A808B122867D1E08A4FF487
:1022B000A562C0F30A002080A0F5B67090423DD818
:1022C000E07D217EC00840EA4110C0F30A00608032
:1022D000A0F5B670904231D88809617E40EA81004D
:1022E000A17E40EA8120C0F30A00A080A0F5B6706C
:1022F000904223D84808E17E40EAC110C0F30A00AA
:10230000E080A0F5B670904218D8E08CC0F30A00C7
:102310006081A0F5B670904210D88809207201281B
:1023200003D0032801D0022808D1C1F30110607244
:1023300001280BD0032809D0022807D0012084F8F7
:102340005C002046BDE81040FFF796BFA08BA0813F
:10235000E08BE081208C208294F82200A07494F815
:102360002300E074A08CA08204F1600009F052FE0A
:1023700002F07EFBA062002084F85C0010BD10B566
:102380000446032084F85C002046FFF775FF04F143
:10239000160104F12C00BDE81040122209F066BFBE
:1023A00070B50D46040003D1B6211AA00EF04CF80A
:1023B0001DB9B72117A00EF047F8206818B9B82149
:1023C00014A00EF041F8207B40F080012173E288D8
:1023D000A088824207D121F03C00083020F0800024
:1023E0002073012070BD6289216800FB021128461C
:1023F000FEF76CF8A088401C80B2A080218988423A
:1024000001D30020A080207B20F0800020730020DA
:1024100070BD00002E2E5C53454D4C5C4D696464CC
:102420006C6577617265735C446174615374727535
:1024300063747572655C71756575652E6300000067
:102440007047082002F028B9102002F025B920209A
:1024500002F022B970B50D46040003D187212FA0E8
:102460000DF0F2FF1DB988212CA00DF0EDFF2068C2
:1024700018B9892129A00DF0E7FF207B810709D039
:1024800000F00300012805D0022803D08A2123A0F0
:102490000DF0DAFF207B40F080002073E288218974
:1024A000521CB2FBF1F301FB1323A28893421ED10D
:1024B00010F0030317D0012B08D0022B17D1521CA8
:1024C000B2FBF1F001FB1020A08010E020460EF0DE
:1024D000B3FC60B1207B20F03C000C3020F0800089
:1024E0002073012070BD20F03C00001DF6E7E1885C
:1024F0006289206801FB02002946FDF7E7FFE088BA
:10250000401C80B2E0802189884201D10020E08017
:10251000207B20F080002073002070BD2E2E5C53A5
:10252000454D4C5C4D6964646C6577617265735CA4
:10253000446174615374727563747572655C71750E
:102540006575652E6300000072B6FEE72DE9F04167
:1025500002F08EFA1C4C00250646A56104F108081D
:10256000C4F8145002F084FA801B642860690AD809
:10257000401C60610121144800F004F9002140462C
:1025800000F000F9EEE7322148436427B0FBF7F092
:10259000C4E9055002F06CFA4FEA000602F068FA4E
:1025A000801B6428606906D8401C60610021404699
:1025B00000F0E8F8F2E732214843B0FBF7F065613C
:1025C000E061BDE8F0810000F42D00200349012006
:1025D00008820146014800F0D5B80000F42D002023
:1025E000394CA56802F044FA20B94FF4BA7137A00B
:1025F0000DF02AFFA06908B9FFF7A8FF40F27B168B
:1026000055B1286918B9314630A00DF01DFF284694
:1026100000F026F9AD69F3E74FF4C176256809E0CB
:10262000286918B9314629A00DF00EFF284600F0A0
:1026300017F9AD69002DF3D1642001F0B1FF207CC2
:102640002F46214E2B4DC00706F1080616D0E06933
:10265000C4F8180002F00CFA2968401A32286069A0
:102660002BD964214843A169B0FBF1F0C0F16400AB
:10267000A074676102F0FCF9286020E002F0F8F92C
:102680002968401A322860690CD964214843A1693D
:10269000B0FBF1F0C0F16400A074676102F0E8F9EA
:1026A000286001E0401C60610121074800F06AF8E1
:1026B0000021304600F066F8E0E7401C6061002130
:1026C000304600F05FF8C5E7F42D00202E2E5C5355
:1026D000454D4C5C4D6964646C6577617265735CF3
:1026E00053797374656D5C6576656E745F6F732E78
:1026F000630000006801002010B5040003D1AB2185
:1027000015A00DF0A1FE208840F001002080207867
:1027100001071B4805D50079C0071BD12146184881
:1027200005E0007BC00715D11548214608300AF0A6
:1027300022FB606900B18047002060612061A061D8
:10274000A0606060207820F00C002070208820F0CD
:102750000300208010BD00002E2E5C53454D4C5CC4
:102760004D6964646C6577617265735C53797374E9
:10277000656D5C6576656E745F6F732E6300000037
:10278000F42D00202DE9F041012787800546002621
:1027900004681EE0207840071AD5A068C0B102F096
:1027A00067F96168884213D302F062F9A1680844AE
:1027B00060602078C00708D0D4F81880AE8020462A
:1027C000FFF79AFFAF80444602E021692046884720
:1027D000A469002CDED1AE80BDE8F0812DE9F04780
:1027E0001F46DDE9086915468846040003D18921A2
:1027F00010A00DF029FE1EB98A210EA00DF024FEB6
:102800000020C4E90590C4E90108C4E903762078F2
:10281000012D20F0040065F3C300207020882146BC
:1028200020F0020020800D4800D00830BDE8F047BD
:102830000AF097BA2E2E5C53454D4C5C4D6964648A
:102840006C6577617265735C53797374656D5C65F3
:1028500076656E745F6F732E63000000F42D0020A8
:1028600010B5040003D1692108A00DF0EDFD20781A
:10287000800706D4E06800B18047208840F002005D
:102880002080207840F00400207010BD2E2E5C5374
:10289000454D4C5C4D6964646C6577617265735C31
:1028A00053797374656D5C6576656E745F6F732EB6
:1028B0006300000070B50E4604004FF000051AD00A
:1028C000012C18D0022C16D0032C14D0042C12D0BA
:1028D000052C10D0062C0ED0072C0CD0082C0AD0BA
:1028E000092C08D00A2C06D00B2C04D040F2D93188
:1028F00016A00DF0A9FD66B1012E24D0022E1FD026
:10290000032E04D040F2DA3110A00DF09DFD4FF4FB
:1029100040751E48016821F4407101600168294337
:102920000160016821F0F80101600168022202EBF8
:10293000C40211430160016841F48031016070BD3F
:102940004FF40075E5E74FF48075E2E72E2E2F4433
:102950007269766572732F53544D333246347878EA
:102960005F48414C5F4472697665722F5372632FE2
:1029700073746D3332663478785F68616C5F666C4F
:102980006173685F65782E6300000000103C0240B0
:102990001348016889050FD5016821F400710160B1
:1029A000016841F400610160016821F40061016087
:1029B000016841F400710160016849050FD50168A3
:1029C00021F480610160016841F480510160016877
:1029D00021F480510160016841F480610160704719
:1029E000003C024001F0F0BD17490868C2061748D4
:1029F00005D5C26942F01002C26110220A600A685D
:102A0000920605D5C26942F00802C26120220A601E
:102A10000A68520605D5C26942F00402C26140222A
:102A20000A600A68120605D5C26942F00202C26154
:102A300080220A600A68920705D5C26942F0200226
:102A4000C2610220086070470C3C0240D42D002077
:102A50002DE9F04116000C46054603D1512120A076
:102A60000DF0F2FC4DB1012D07D0022D05D0032D44
:102A700003D052211AA00DF0E7FC601E8107490F18
:102A800031704FF40076771E65B1012D0AD0022D0A
:102A900011D0032D1CD0672111A00DF0D5FC002012
:102AA000BDE8F081072803D958210DA00DF0CCFC1A
:102AB000042C13D907E0072803D95E2108A00DF0E4
:102AC000C3FC042C01D83846EAE740F2FF20E7E7D0
:102AD000032803D9642102A00DF0B6FC3046DFE7DD
:102AE0002E2E5C53454D4C5C4D6964646C6577617A
:102AF0007265735C436F6D6D756E69636174696F48
:102B00006E735C446A695F4D6F746F722E63000070
:102B10002DE9F041274C064600202080608003E02C
:102B2000228851402180401C315C0029F8D1208846
:102B30004FF0320EB0FBFEF10EFB110020801E4D57
:102B400000202288C2EB021315F81310A9B100214E
:102B500005EB4307735C0BB317F801C0634502D163
:102B6000491C1E29F6DB521C91B2B1FBFEF20EFB92
:102B70001211401C21803228E3DDA088401C80B265
:102B8000A080322803D34B210CA00DF05DFC2188DE
:102B90000020C1EB011205EB420206E0012060803B
:102BA00090B2BDE8F0811354401C335C002BFAD185
:102BB0000846F6E71C020020B43300202E2E5C539A
:102BC000454D4C5C4170705C526F626F5C526F623D
:102BD0006F5F636F6D6D6F6E2E63000070B50D4695
:102BE000040004D140F26F1103480DF02DFC606821
:102BF0002860208970BD000064260108F8B5002611
:102C00000546009608680C46122804D940F28B61EC
:102C10005DA00DF019FC6068401E0F2804D940F239
:102C20008C6159A00DF010FCA06890B1012810D063
:102C300002280ED003280CD004280AD0052808D07A
:102C4000062806D0072804D040F28D614EA00DF072
:102C5000FBFB95F83C00012819D0012085F83C00C9
:102C6000206807212A68092813D9D3680A3800EB9D
:102C7000400081408B43D3602178A0680A3901EB82
:102C8000410188402968CA681043C86010E00220EA
:102C9000F8BD136900EB400081408B43136121783C
:102CA000A06801EB4101884029680A691043086166
:102CB00060681F21072813D22A68536B401E00EB5F
:102CC000800081408B43536321792088491E80B264
:102CD00001EB8101884029684A6B1043486327E073
:102CE0002A680D2812D2136BC01F00EB80008140B0
:102CF0008B43136321792088C91F80B201EB8101C6
:102D0000884029680A6B1043086311E0D36A0D38C4
:102D100000EB800081408B43D362217920880D39FC
:102D200080B201EB810188402968CA6A1043C862F9
:102D300024492A6822488A4206D12268122A03D1ED
:102D4000426842F4800242602A688A4218D12168AF
:102D5000102901D0112913D1416841F400014160CB
:102D6000206810280CD1184818490068B0FBF1F011
:102D700000EB8000400000E0401E00900028FBD1E6
:102D800085F83C600020F8BD2E2E2F4472697665D0
:102D900072732F53544D3332463478785F48414C28
:102DA0005F4472697665722F5372632F73746D334B
:102DB00032663478785F68616C5F6164632E6300AB
:102DC00000230140002001407C00002040420F0011
:102DD0002DE9F04704004FF000057DD072492068CE
:102DE00088420AD07149884207D07149884204D08C
:102DF0004FF4A1716FA00DF027FB606868B1B0F5CA
:102E0000803F0AD0B0F5003F07D0B0F5403F04D076
:102E100040F2431167A00DF017FBA0684FF08077D8
:102E20004FF000784FF0407950B1B84208D040459B
:102E300006D0484504D04FF4A2715EA00DF004FB0B
:102E4000206930B1012804D040F2451159A00DF09D
:102E5000FBFA207E30B1012804D04FF4A37155A0B5
:102E60000DF0F2FA614EA06A80B3B8422ED0404510
:102E70002CD048452AD0B0F1806F27D0B0F1A06F98
:102E800024D0B0F1C06F21D0B0F1E06F1ED0B0F10E
:102E9000006F1BD0B0F1106F18D0B0F1206F15D0BB
:102EA000B0F1306F12D0B0F1406F0FD0B0F1506F71
:102EB0000CD0B0F1606F09D0B0F1706F06D0B042A5
:102EC00004D040F247113BA00DF0BEFAE06848B1D3
:102ED000B0F5006F06D000E043E04FF4A47135A0D8
:102EE0000DF0B2FAE069401E0F2804D940F24911F2
:102EF00030A00DF0A9FA94F8300030B1012804D0C8
:102F00004FF4A5712BA00DF09FFA6069012807D03E
:102F100030B1022804D040F24B1126A00DF094FAF3
:102F200094F8200030B1012804D04FF4A67121A0FC
:102F30000DF08AFAA06AB0420FD0E06A68B1B0F131
:102F4000805F0AD0B0F1005F07D0B0F1405F04D0DD
:102F50004FF4A87117A00DF077FA206C002618B175
:102F600008E00120BDE8F087204600F041F86664E3
:102F700084F83C60206CC00610D4206C20F488508B
:102F800040F0020020642046FDF7B0FE6664206C2D
:102F900020F0020040F00100206400E0012584F8E8
:102FA0003C602846DEE7000000200140002101408F
:102FB000002201402E2E2F447269766572732F53C2
:102FC000544D3332463478785F48414C5F447269DF
:102FD0007665722F5372632F73746D333266347853
:102FE000785F68616C5F6164632E63000100000FAD
:102FF00038B5054600681249884220D111480021A1
:10300000026842F4807202600068104C00F4807024
:1030100000900D48C4E900010015A160C4E9031047
:10302000400060618000C4E90601216220466162BF
:1030300001F0E2F808B1FFF787FAAC63A56338BD89
:10304000002001404438024070640240A004002087
:1030500070B590F820600D4604460C48814204D9B2
:103060004FF4D0610AA00DF0EFF9012E07D0022E27
:1030700005D0606A40F480206062012070BD206845
:10308000416929434161002070BD00007F8F03002A
:103090002E2E2F447269766572732F53544D33323E
:1030A000463478785F48414C5F4472697665722F88
:1030B0005372632F73746D3332663478785F68614E
:1030C0006C5F63616E2E63002DE9F04790F82080FD
:1030D000994616460D46044600688768886830B1F0
:1030E000042804D040F2E9414EA00DF0ADF9E868A3
:1030F00030B1022804D040F2EA414AA00DF0A4F910
:103100002869082804D940F2EB4146A00DF09CF94B
:10311000A86800281BD06868B0F1005F04D340F2B3
:10312000F24140A00DF090F9287D30B1012804D083
:1031300040F2F4413BA00DF087F9B8F1010F0DD03A
:10314000B8F1020F0AD0606A40F4802066E0286877
:10315000B0F5006FE8D340F2EE41E2E717F0406FC0
:1031600001D1F80057D5C7F30160022803D9606A7E
:1031700040F4000052E001218140C9F80010AA6823
:103180004FF4C0719AB1EB681A436B6842EAC3020C
:10319000236801EB0017DA514FF4C272276802EB83
:1031A00000122B69BB502B7D012B05D009E02B8829
:1031B000EA6842EA4352EBE723689D5845F480757C
:1031C0009D503279F379757942EA0362B3791B0431
:1031D00043EA05231A434FF4C675236805EB00152F
:1031E0005A513278F378757842EA0362B3781B0457
:1031F00043EA05231A434FF4C475236805EB001511
:103200005A51226801EB0010115841F00101115090
:103210000020BDE8F087606A40F400106062012081
:10322000F7E700002E2E2F447269766572732F53D4
:10323000544D3332463478785F48414C5F4472696C
:103240007665722F5372632F73746D3332663478E0
:10325000785F68616C5F63616E2E630070B50C46C9
:1032600090F82010012907D0022905D0416A41F4C5
:1032700080214162012070BD20684FF48035A84252
:1032800004D34FF4547163A00DF0DEF86068A842D7
:1032900004D340F251315FA00DF0D6F8A068A842E7
:1032A00004D340F252315BA00DF0CEF8E068A842A2
:1032B00004D340F2533157A00DF0C6F8A06930B1E5
:1032C000012804D04FF4557152A00DF0BDF8E0690B
:1032D00030B1012804D040F255314EA00DF0B4F8C1
:1032E000206930B1012804D040F2563149A00DF0D8
:1032F000ABF8206A30B1012804D040F2573145A024
:103300000DF0A2F86069514D1B2804D940F27231CA
:1033100040A00DF099F8606A1B2804D940F273317F
:103320003CA00DF091F8D5F8000240F00100C5F87E
:103330000002D5F8000220F47C50C5F80002D5F850
:103340000002616A40EA0120C5F80002207D00F019
:103350001F0101208840D5F81C128143C5F81C12BA
:10336000E169B1B9D5F80C128143C5F80C12A289F4
:10337000616862F31F41626905EBC202C2F8401244
:103380002289216862F31F41626905EBC202C2F81B
:103390004412E169012916D1D5F80C120143C5F890
:1033A0000C122288616862F31F41626905EBC20258
:1033B000C2F840122289E16862F31F41626905EB9D
:1033C000C202C2F84412A1690029D5F804120FD034
:1033D00051EA0001C5F8041221690029D5F8141238
:1033E00008D00143C5F81412216A012904D008E06D
:1033F0008143EFE78143F5E7D5F81C120143C5F897
:103400001C12D5F8000220F00100C5F800020020CF
:1034100070BD00002E2E2F447269766572732F5393
:10342000544D3332463478785F48414C5F4472697A
:103430007665722F5372632F73746D3332663478EE
:10344000785F68616C5F63616E2E630000640040AA
:10345000704700002DE9F04190F820801D46174686
:103460000E00044606D0012E04D04FF4BE613BA0EE
:103470000CF0EAFFB8F1010F06D0B8F1020F03D04B
:10348000606A40F480205EE02068002E56D000691B
:10349000800755D04FF4D870216800EB061009580A
:1034A00011F00401B960216809584FD0C90879604A
:1034B0002168085800F00200F8604FF4DA702168C3
:1034C00000EB0610095801F00F0139612168095815
:1034D000C1F30721B96121680858000C78614FF4E5
:1034E000DC70216800EB0610095829702168095822
:1034F000090A697021680958090CA97021680858DF
:10350000000EE8704FF4DE70216800EB06100958D9
:10351000297121680958090A697121680958090C3B
:10352000A97121680858000EE87120688EB1016900
:1035300041F0200101610020BDE8F081C068A7E7EB
:10354000606A40F4001060620120F5E7490D3960BF
:10355000AEE7C16841F02001C160ECE72E2E2F4498
:103560007269766572732F53544D333246347878CE
:103570005F48414C5F4472697665722F5372632FC6
:1035800073746D3332663478785F68616C5F636141
:103590006E2E63002DE9F05F054600680024466941
:1035A000D0F804908768D0F80CA0D0F810B0D0F80C
:1035B0001880F10742D0F90712D001218160B807C5
:1035C00001D5A96A0AE0780702D54FF4006407E044
:1035D000380702D54FF4805402E0696B28468847CB
:1035E000F80514D529684FF480708860B80501D5B6
:1035F000E96A0AE0780502D544F4005407E038058A
:1036000002D544F4804402E0A96B28468847F803B9
:1036100014D529684FF480308860B80301D5296B30
:103620000AE0780302D544F4004407E0380302D5E9
:1036300044F4803402E0E96B2846884730074FF0B5
:10364000100706D55FEACA6003D5286844F4007401
:10365000C760700708D55FEA0A7005D52968082099
:10366000C860696C28468847B00706D52868C068D6
:10367000800702D0296C28468847700606D55FEA85
:10368000CB6003D5286844F480640761B00608D590
:103690005FEA0B7005D5296808200861E96C2846A7
:1036A0008847F00606D528680069800702D0A96C13
:1036B00028468847B00307D55FEAC96004D5286863
:1036C0004760296D28468847F00308D55FEA0970EE
:1036D00005D5296808204860696D28468847300468
:1036E00046D55FEA497040D5F00504D55FEAC87059
:1036F00001D044F00104B00504D55FEA887001D51B
:1037000044F00204700504D55FEA487001D544F026
:103710000404300529D518F0700F26D008F0700089
:10372000402815D006DC102809D020280AD03028DF
:1037300016D10AE050280ED0602811D10EE044F0D6
:1037400008040DE044F010040AE044F0200407E00F
:1037500044F0400404E044F0800401E044F4807448
:103760002868816921F0700181612968042048601E
:10377000002C07D0686A204368622846A96DBDE81E
:10378000F05F0847BDE8F09F70B504007ED0B349F4
:103790002068884207D0B249884204D040F21D1107
:1037A000B0A00CF051FE207E30B1012804D04FF4BF
:1037B0008F71ACA00CF048FE607E30B1012804D0BF
:1037C00040F21F11A7A00CF03FFEA07E30B10128EF
:1037D00004D04FF49071A3A00CF036FEE07E30B11F
:1037E000012804D040F221119EA00CF02DFE207F74
:1037F00030B1012804D04FF491719AA00CF024FE4E
:10380000607F30B1012804D040F2231195A00CF064
:103810001BFEA06868B1B0F1804F0AD0B0F1004F34
:1038200007D0B0F1404F04D04FF492718DA00CF04E
:103830000BFEE06868B1B0F1807F0AD0B0F1007F84
:1038400007D0B0F1407F04D040F2251185A00CF0E4
:10385000FBFD206998B3B0F5803F30D0B0F5003F54
:103860002DD0B0F5403F2AD0B0F5802F27D0B0F54D
:10387000A02F24D0B0F5C02F21D0B0F5E02F1ED05E
:10388000B0F5002F1BD0B0F5102F00E041E016D0AE
:10389000B0F5202F13D0B0F5302F10D0B0F5402F59
:1038A0000DD0B0F5502F0AD0B0F5602F07D0B0F58D
:1038B000702F04D04FF493716AA00CF0C5FD6069BD
:1038C000C8B1B0F5801F16D0B0F5001F13D0B0F509
:1038D000401F10D0B0F5800F0DD0B0F5A00F0AD06A
:1038E000B0F5C00F07D0B0F5E00F04D040F22711BB
:1038F0005CA00CF0A9FD6068401EB0F5806F04D399
:103900004FF4947157A00CF09FFD94F8200010B173
:1039100022E0012070BD6148206461486064614814
:10392000A0646148E0646148A0626148E062614867
:103930002063614860636148A0636148E063614857
:103940002065614860656148A065E06D08B9604820
:10395000E0650146204688472068016841F0010182
:10396000016001F085F80546052604E001F080F8C5
:10397000401B0A2811D820684068C007F6D020688C
:10398000016821F00201016001F072F805460BE0C8
:1039900001F06EF8401B0A2806D9606A40F4003036
:1039A000606284F82060B4E7206840688007EFD444
:1039B000207E0128206801683DD021F0800101604F
:1039C000607E01282068016838D021F04001016044
:1039D000A07E01282068016833D021F02001016019
:1039E000E07E0128206801682ED041F010010160BE
:1039F000207F01282068016829D021F0080101609A
:103A0000607F01282068016824D021F00401016052
:103A1000D4E902010843D4E9041211430843616860
:103A2000491E08432168C86100206062012084F8B3
:103A30002000002070BD41F08001C0E741F040014E
:103A4000C5E741F02001CAE721F01001CFE741F0BE
:103A50000801D4E741F00401D9E700000064004008
:103A6000006800402E2E2F447269766572732F53C2
:103A7000544D3332463478785F48414C5F44726924
:103A80007665722F5372632F73746D333266347898
:103A9000785F68616C5F63616E2E63005F3C000855
:103AA0005D3C0008633C0008613C0008C33C000822
:103AB000C73C0008CB3C0008C13C0008C53C0008DE
:103AC000C93C0008653C0008CD3C000851340008A2
:103AD000D53A0008F0B587B0044614216846FCF7D3
:103AE0006CFD364B3648DFF8D0E01968D4F800C0DA
:103AF000334A03250226092710300024491CF445C7
:103B000022D11960012907D1016841F000710160DB
:103B1000006800F000700590106840F00800106028
:103B20001068CDE9005600F00800CDE90470694640
:103B30002448CDE9024500F0BBFD002205211420F8
:103B400001F0BCFB142032E0DFF87CE0F44530D11A
:103B5000D0F800C04CF0806CC0F800C0D0F800C0B5
:103B600001290CF0806CCDF814C0196007D10168F0
:103B700041F000710160006800F00070059010686D
:103B800040F002001060106802AB00F002000590E7
:103B90006020CDE9000683E8B00069460B4800F0DC
:103BA00087FD00220521402001F088FB402001F024
:103BB00053FB07B0F0BD000000640040000000208F
:103BC00030380240000C024000680040000402400F
:103BD00010B500233AB190F82040012C09D090F89C
:103BE000204064B32FE0416A41F48001416201202A
:103BF00010BD0F2927D2DFE801F0080A0C0E1012C1
:103C00001416181A1C1E202D2F00826220E0C2629A
:103C10001EE002631CE042631AE0826318E0C263A4
:103C200016E0026414E0426412E0826410E0C264B0
:103C30000EE002650CE042650AE0826508E00D29AD
:103C400008D00E2908D0416A41F480014162012365
:103C5000184610BDC265FBE70266F9E7704770477A
:103C6000704770477047000070B5044690F8200018
:103C7000012804D0606A40F40020606218E002204D
:103C800084F820002068016821F00101016000F043
:103C9000EFFE05460EE000BF00F0EAFE401B0A28DA
:103CA00008D9606A40F400306062052084F8200082
:103CB000012070BD20684068C007EDD1606270BD12
:103CC00070477047704770477047704770470000F3
:103CD00010B504000AD00B492068884203D068213F
:103CE00009A00CF0B1FB607910B106E0012010BD15
:103CF00000202071204600F023F801206071002090
:103D000010BD0000003002402E2E2F4472697665EF
:103D100072732F53544D3332463478785F48414C98
:103D20005F4472697665722F5372632F73746D33BB
:103D300032663478785F68616C5F6372632E63000B
:103D400008B500680649884208D10648016841F470
:103D500080510160006800F48050009008BD0000B0
:103D60000030024030380240704700002DE9F04139
:103D70000B6816460D460446A3B1242B12D00C2B1B
:103D800010D0142B0ED01C2B0CD0042B0AD02C2BB3
:103D900008D0342B06D03C2B04D040F2A6311BA017
:103DA0000CF052FB686830B1022804D040F2A73111
:103DB00016A00CF049FB36B1102E04D04FF46A71F6
:103DC00012A00CF041FB607901281CD0012767711B
:103DD000022020712368186806F0100240F6FE7178
:103DE00091408843D5E9001529439140014319606A
:103DF00020680168C0239340994301602771002027
:103E00006071BDE8F0810220FBE700002E2E2F44F8
:103E10007269766572732F53544D33324634787815
:103E20005F48414C5F4472697665722F5372632F0D
:103E300073746D3332663478785F68616C5F646187
:103E4000632E6300704770B50446006801684FF048
:103E50000405890411D5416B89040ED525712169AA
:103E600041F001012161E90241632068016821F408
:103E7000805101602046FFF7E5FF20680168890056
:103E800014D5416B890011D52571216941F00201DA
:103E900021614FF0005141632068016821F0805199
:103EA00001602046BDE87040FFF75EBF70BD0000B6
:103EB00070B504000CD00D492068884204D040F24F
:103EC00017110BA00CF0C0FA2079002510B105E005
:103ED000012070BD6571204600F026F80220207197
:103EE000256101202071002070BD00000074004099
:103EF0002E2E2F447269766572732F53544D3332D0
:103F0000463478785F48414C5F4472697665722F19
:103F10005372632F73746D3332663478785F6861DF
:103F20006C5F6461632E630010B586B00446142193
:103F30006846FCF742FB15492068884224D11448A2
:103F40000021026842F000520260006800F0005058
:103F500005900F481038026842F0010202600068C4
:103F600000F001000590202000900320CDE9010120
:103F70006946084800F09CFB00220621362001F02B
:103F80009DF9362001F068F906B010BD00740040BC
:103F900040380240000002402DE9F0410446876DA0
:103FA00000F066FD064694F835000025022806D08C
:103FB0008020606584F834500120BDE8F0812068DD
:103FC000016821F0160101602068416921F080013B
:103FD0004161206C08B9A06C20B12068016821F013
:103FE000080101602068016821F0010101600CE016
:103FF00000F03EFD801B052807D9202060650320C6
:1040000084F8350084F83450D7E720680068C0078A
:10401000EED194F85C103F208840B860012084F80D
:10402000350084F834500020C7E790F83510022995
:1040300003D08021416501207047052180F83510AB
:104040000068016821F00101016000207047406DA7
:10405000704790F8350070472DE9F84304464FF05B
:104060000009CDF8009063484FF41651A56D006823
:10407000B0FBF1F72E6894F85C10082000FA01F10B
:1040800031420FD021680A6852070BD50A6822F026
:1040900004020A6094F85C108840A860606D40F0EB
:1040A0000100606594F85C104FF0010808FA01F017
:1040B000304208D021684969090604D5A860606DBE
:1040C00040F00200606594F85C10042088403042A3
:1040D00008D021680968890704D5A860606D40F0A0
:1040E0000400606594F85C1010208840304218D0BD
:1040F00021680968090714D5A86020680168490388
:1041000004D50068000308D5A16C07E00168C90563
:1041100003D4016821F008010160216C09B1204637
:10412000884794F85C1020208840304231D02168C4
:104130000968C9062DD5A86094F8350005282068BF
:10414000016806D0490347D5006800031DD4616C9F
:104150001CE021F0160101602068416921F0800116
:104160004161206C08B9A06C20B12068016821F081
:104170000801016094F85C103F208840A86084F832
:10418000358084F83490216D1FE0E16B09B1204641
:104190008847606D00282BD0606DC00714D00520C3
:1041A00084F835002068016821F001010160009861
:1041B000401C0090B84203D820680068C007F6D1C0
:1041C00084F8358084F83490E16C002910D001B077
:1041D0002046BDE8F04308470168C905D5D4016809
:1041E00021F01001016084F8358084F83490CCE728
:1041F000BDE8F8837C0000202DE9F041044600F082
:1042000037FC0546002C7CD0A249206888423ED06D
:10421000A049183188423AD09E493031884236D080
:104220009C494831884232D09A49603188422ED028
:104230009849783188422AD096499031884226D0D0
:104240009449A831884222D0934988421FD092498C
:10425000183188421BD090493031884217D08E499E
:104260004831884213D08C49603188420FD08A4946
:10427000783188420BD088499031884207D08649EE
:10428000A831884203D0B72184A00CF0DDF8606823
:10429000C0B1B0F1007F15D0B0F1806F12D0B0F195
:1042A000C06F0FD0B0F1006F0CD0B0F1206F09D00B
:1042B000B0F1406F06D0B0F1606F03D0B82177A0A5
:1042C0000CF0C2F8A06838B1402805D0802803D08F
:1042D000B92172A00CF0B8F8E068B0F5007F04D006
:1042E00018B1BA216DA00CF0AFF82069B0F5806F5D
:1042F00004D018B1BB2169A00CF0A6F8606958B1D0
:1043000000E071E0B0F5006F06D0B0F5805F03D03B
:10431000BC2162A00CF098F8A06948B1B0F5005F2C
:1043200006D0B0F5804F03D0BD215CA00CF08CF816
:10433000E06940B1B0F5807F05D0202803D0BE21D0
:1043400056A00CF081F8206A60B1B0F5803F09D02A
:10435000B0F5003F06D0B0F5403F03D0BF214FA0DD
:104360000CF072F8606A002832D0042806D0C02110
:104370004AA00CF069F8606A002829D0A06A48B108
:10438000012807D0022805D0032803D0C52143A067
:104390000CF05AF8E06A60B1B0F5000F09D0B0F146
:1043A000807F06D0B0F1C07F03D0C6213BA00CF0C7
:1043B0004BF8206B60B1B0F5001F09D0B0F5800F4D
:1043C00006D0B0F5C00F03D0C72134A00CF03CF8E4
:1043D000022084F83500002684F8346020680168E3
:1043E00021F0010101600EE00120BDE8F08100BF75
:1043F00000F03EFB401B052805D920206065032006
:1044000084F83500F1E720680068C007F0D1226821
:10441000116830480140D4E901031843D4E9033559
:104420002B43184363691843A3691843E36918438E
:10443000236A18430843616A042903D1D4E90B13A2
:1044400019430843106020684069656A20F007003E
:1044500029460543012704290CD1A06A0543E06AD7
:1044600040B12046FDF792FE20B14020606584F8FF
:104470003570B9E7206845612046FDF773FE94F872
:104480005C203F2191408160666584F83570002092
:10449000ABE7000010600240106402402E2E2F4453
:1044A0007269766572732F53544D3332463478787F
:1044B0005F48414C5F4472697665722F5372632F77
:1044C00073746D3332663478785F68616C5F646DE5
:1044D000612E63003F8010F02DE9F04789460446C5
:1044E000876D0025581E4FF6FF711E469046884284
:1044F00004D340F2CB111CA00BF0A6FF94F83400BB
:1045000001280DD0012084F8340094F835100020E3
:10451000012907D084F8340002252846BDE8F08739
:104520000220FBE7022184F83510606533464246DD
:1045300049462046FDF754FE94F85C103F20884021
:10454000B8602068016841F016010160206C20B15C
:104550002068016841F0080101602068016841F0AD
:1045600001010160D9E700002E2E2F4472697665A3
:1045700072732F53544D3332463478785F48414C30
:104580005F4472697665722F5372632F73746D3353
:1045900032663478785F68616C5F646D612E6300A9
:1045A00070B5044600F064FA0546601C02D0044869
:1045B0000078044400F05CFA401BA042FAD370BDBE
:1045C00070000020704700002DE9F0412F4F38683F
:1045D0002F4C10F0F20F4FF0FF384FF000050DD0C8
:1045E000207801282DD0207802282ED0D4F814600D
:1045F000FEF7FAF9304600F04DF825703868C0072C
:104600000BD0012038602078012820D020780228A3
:1046100037D06069FFF7D6FF2570207800280ED1CB
:104620001A48001D016821F0FF010160016821F0B6
:1046300080710160016821F0007101602576BDE89C
:10464000F081E668C4F80C80D2E72669D0E760689C
:10465000401E6060606850B1E068FFF7B3FFE0683B
:10466000401CE060E068217AFEF724F9D5E7464671
:10467000C4F80C802570FEF78BF93046FFF7A2FFD7
:10468000CBE7FEF785F92069C4E700000C3C024047
:10469000D42D002070477047044910B50A680242C3
:1046A00002D00860FFF7F7FF10BD0000143C014086
:1046B0002DE9F84FDFF888B20D46044658451BD067
:1046C000A048844218D0A048844215D09F48844214
:1046D00012D09F4884420FD09E4884420CD09E48FE
:1046E000844209D09D48844206D09D48844203D02C
:1046F000AC219CA00BF0A8FE28680104090C01D095
:10470000000C03D0AD2197A00BF09EFE6868F8B1B5
:1047100001281DD011281BD0022819D0122817D02B
:10472000B0F5881F14D0B0F5041F11D0B0F5441FA8
:104730000ED0B0F5901F0BD0B0F5081F08D0B0F523
:10474000481F05D0032803D0AE2186A00BF07CFEC5
:1047500000264FF0010A4FF0030900BF0AFA06F0E5
:104760002F688046074047457ED1287900F0030036
:10477000012801D002281DD1E86848B1012807D0DE
:10478000022805D0032803D0C02176A00BF05CFEE0
:10479000A168720009FA02F08143E868904008437A
:1047A000A0606068297920EA0800C1F30011B140D7
:1047B000014361602879C043800712D0A86838B1EE
:1047C000012805D0022803D0D12166A00BF03CFEC1
:1047D000E168720009FA02F08143A868904008433A
:1047E000E060287900F0030002282ED12869F8B192
:1047F00009281DD001281BD0022819D0032817D062
:10480000042815D0052813D0062811D007280FD06A
:1048100008280DD00A280BD00B2809D00C2807D067
:104820000D2805D00F2803D0DE214EA00BF00CFE82
:10483000F00804EB8002106A7107CB0E0F2199403B
:10484000884329699940014311622068720009FA7E
:1048500002F18843297901F003019140014321606D
:10486000686810F4403F00E063E062D04C480168A3
:1048700041F480410160006826F0030100F48040AB
:10488000009048480A18D2F80808B1070B0F0F210A
:10489000994088435C4501D1002123E029498C429D
:1048A00001D101211EE028498C4201D1022119E0E9
:1048B00026498C4201D1032114E025498C4201D1C3
:1048C00004210FE023498C4201D105210AE022494D
:1048D0008C4201D1062105E020498C4201D10721FB
:1048E00000E0082199400143C2F808182E490868E1
:1048F0006A68B843D20200D5384308602A49091DC6
:1049000008686A68B843920200D5384308602649AF
:10491000091F08686A68B843920300D538430860E5
:104920002149083908686A68B843D20300D538437A
:104930000860761C102EFFF411AFBDE8F88F000060
:10494000000002400004024000080240000C024047
:10495000001002400014024000180240001C0240F7
:10496000002002402E2E2F447269766572732F53F9
:10497000544D3332463478785F48414C5F44726915
:104980007665722F5372632F73746D333266347889
:10499000785F68616C5F6770696F2E63000000006C
:1049A0004438024000300140083C014070B50C0022
:1049B000054604D14FF4BE7103A00BF045FD2869F4
:1049C000204000D0012070BD2E2E2F4472697665E4
:1049D00072732F53544D3332463478785F48414CCC
:1049E0005F4472697665722F5372632F73746D33EF
:1049F00032663478785F68616C5F6770696F2E63C8
:104A00000000000070B515460C00064604D140F2C7
:104A10009D1108A00BF018FD45B1012D04D04FF4F5
:104A2000CF7104A00BF010FDB46170BD2004B06123
:104A300070BD00002E2E2F447269766572732F535D
:104A4000544D3332463478785F48414C5F44726944
:104A50007665722F5372632F73746D3332663478B8
:104A6000785F68616C5F6770696F2E63000000009B
:104A70000148806870470000700000207047704750
:104A80002DE9F041016804464A694E6890F83E00FD
:104A90000025D743FA0506D4F243D20503D46FF4B8
:104AA000807201254A61B90508D4F143C90505D4CE
:104AB00022686FF4007145F002055161790525D433
:104AC000F143C90522D4638D94F83D10226B202850
:104AD00008D13BB9212910D029290ED0282901D18C
:104AE000212A0AD022686FF48061516145F00405E3
:104AF000102806D0402804D008E0204605F09CFA93
:104B000004E02068016841F400710160380508D4B0
:104B1000F043C00505D421686FF4006045F0080536
:104B20004861002D07D0206C284320642046BDE852
:104B3000F04104F013BFBDE8F0812DE9F0470268B1
:104B400000215368C66A90F83E4090F83D50102C02
:104B500012D0402C10D0046C002C7DD05469E4435A
:104B6000A6077AD4DE43B60577D4036C03B1916906
:104B7000BDE8F04705F03CBA976951694FF42A0C3B
:104B8000C9435FEAC1784FF02A4904D066452AD06C
:104B90004E4528D010E0DE43B6050DD4C16A61450C
:104BA00001D1012103E0C16A494501D10821C16257
:104BB000BDE8F04705F086B90E0716D4DE43B6050A
:104BC00013D4416CC9B21161416B09B1C96B29B9E8
:104BD000816B002907D0C96B002904D000684168A7
:104BE00041F400614160BDE8F0878E0706D4DE43E2
:104BF000B60503D4BDE8F04705F0D8B8FE435268C7
:104C000076074FEA02521DD4002AECDB0A0608D4CC
:104C1000DA43520505D4490705D5BDE8F04705F04C
:104C200069B84907DFD4D9438905DCD4212D05D0E3
:104C3000402CD8D1BDE8F04705F08AB9BDE8F0476F
:104C400005F016B8002ACEDB4A060BD4DA4352052B
:104C500008D4490708D501E00DE00EE0BDE8F047B3
:104C600004F092BF4907BED4D9438905BBD4BDE83F
:104C7000F04704F01FBF916970E7E10606D4D943FD
:104C8000890503D4BDE8F04705F018BA2821212D85
:104C900027D0292D25D0650655D4DD436D0552D486
:104CA000640752D590F83D30448D002C9BD012699A
:104CB000446A2270426A521C4262428D521E4285F0
:104CC000428D002A8FD12A2B8DD10268536823F49C
:104CD000806353602222026380F83D1000F058FA8E
:104CE00081E7250623D4DD436D0520D4640720D554
:104CF00090F83D30448D002CF2D0446A2478146141
:104D0000426A521C4262428D521E4285428D002AE6
:104D1000E6D1292BE4D10268536823F48063536001
:104D20002122026380F83D1000F033FA5BE761074F
:104D3000D6D4D9438905D3D4418D0029D0D0416A36
:104D4000097811610AE06107CAD4D9438905C7D43B
:104D5000418D0029C4D01169426A1170416A491C11
:104D60004162418D491E41853DE7704770B50400A1
:104D70007DD08A49206888420AD08949884207D074
:104D80008849884204D04FF4DF7187A00BF05CFBA8
:104D900060689349401E884204D940F2BF1182A046
:104DA0000BF052FBA0684FF4804530B1A84204D00C
:104DB0004FF4E0717CA00BF047FBE068800A04D060
:104DC00040F2C11178A00BF03FFB2069A84207D048
:104DD000B0F5404F04D04FF4E17173A00BF034FBF9
:104DE000606930B1012804D040F2C3116EA00BF00D
:104DF0002BFBA06930F0FE0004D04FF4E2716AA0F2
:104E00000BF022FBE06930B1402804D040F2C5111C
:104E100065A00BF019FB206A30B1802804D04FF454
:104E2000E37161A00BF010FB94F83D00002520B960
:104E300084F83C50204600F0E3F8242084F83D003C
:104E40002068016821F0010101602068016841F4D7
:104E5000004101602068016821F40041016001F017
:104E6000CBFA604A6168914202D85F4901E002E0F2
:104E70005E49884201D2012070BD5D492368B0FBC4
:104E8000F1F15E6826F03F060E435E606368934270
:104E900006D94FF4967359434FF47A73B1FBF3F18B
:104EA0002368491C1E6A26F03F0631431962616877
:104EB000914210D84900401EB0FBF1F2521CC2F3DF
:104EC0000B02042A01D2042022E0B0FBF1F0401CC6
:104ED000C0F30B001CE0A368F3B301EBC10202EBCB
:104EE0000116421EB2FBF6F2521C42F48042120539
:104EF00049D093B301EBC10202EB0111401EB0FB9C
:104F0000F1F0401CC0F30B0040F4804040F400403E
:104F10002168CA694CF6FF739A431043C861D4E90B
:104F2000071001432068026822F0C00211430160AB
:104F3000D4E9030101432068826848F2FF339A43B1
:104F400011438160D4E9050108432168CA6822F051
:104F5000FF021043C86001E00EE016E0206801681F
:104F600041F0010101602564202084F83D002563A3
:104F700084F83E50002070BD01EB4106421EB2FB9A
:104F8000F6F2521CB3E70120C2E701EB4101401EDB
:104F9000B0FBF1F0401CC0F30B00B7E70054004039
:104FA00000580040005C00402E2E2F447269766548
:104FB00072732F53544D3332463478785F48414CE6
:104FC0005F4472697665722F5372632F73746D3309
:104FD00032663478785F68616C5F6932632E630093
:104FE0007F1A0600A086010080841E0000093D0093
:104FF00040420F007047704770477047704700008D
:105000002DE9F04387B0064614216846FBF7D5FA30
:10501000574ADFF86091316856480325122700246B
:105020004FF0040809F1100991425AD1016841F08A
:10503000200101600068CDE9005700F02000CDE9B3
:10504000048069464C48CDE90245FFF731FBD9F8A9
:10505000001041F48001C9F80010D9F80000484D53
:1050600000F480000590454828604FF06067C5E96E
:1050700001744FF48068C5E903486C61AC61EC6170
:105080002C6228466C62FFF7B7F808B1FDF75CFAAE
:10509000B563AE633A4D394860357830E5E80207CC
:1050A0004020A5E81101364845F814496030AC614C
:1050B000EC612C626C62FFF79FF808B1FDF744FACF
:1050C0007563002211462120AE6300F0F7F821201D
:1050D00000F0C2F800221146222000F0EFF8222052
:1050E00040E0284A91423FD1016841F0040101604B
:1050F000016801F004010591016841F001010160BE
:105100000068694600F0010005905015CDE90007E0
:1051100002AA1D4882E83001FFF7CAFA4FF48070F6
:10512000CDE9000702AA694682E830011748FFF777
:10513000BFFAD9F8001041F40001C9F80010D9F8FD
:105140000000002200F4000005901146482000F005
:10515000B5F8482000F080F800221146492000F000
:10516000ADF8492000F078F807B0BDE8F083000002
:1051700000580040303802400014024040600240B5
:1051800084060020005C004000080240000002404D
:105190007047704702488168027811448160704707
:1051A000700000200B4810B5016841F400710160E7
:1051B000016841F480610160016841F4807101601F
:1051C000032000F0CBF8022000F006F800F024F8ED
:1051D000002010BD003C024070B50D4D04464FF458
:1051E0007A712878B1FBF0F00A490968B1FBF0F058
:1051F00002F016FA48B9102C07D200222146501EA0
:1052000000F05CF800206C6070BD012070BD0000F3
:10521000700000207C0000200E4808B5016841F4B1
:1052200080410160006800F4804000900948001F40
:10523000016841F0805101600068002200F0805058
:1052400000900621042000F039F8BDE80840042051
:1052500000F002B84438024010B5040003D5BC2168
:1052600007A00BF0F1F8002C09DB04F01F0101206E
:1052700088406109890001F1E021C1F8000110BDF9
:105280002E2E2F447269766572732F53544D33322C
:10529000463478785F48414C5F4472697665722F76
:1052A0005372632F73746D3332663478785F68613C
:1052B0006C5F636F727465782E63000070B515467D
:1052C0000C460646102A03D3A82114A00BF0BCF804
:1052D000102C03D3A92111A00BF0B6F81E480068CA
:1052E000C0F30223C3F107022046042A00D9042296
:1052F000191D072901D2002300E0DB1E012404FA56
:1053000002F1491E014099409C40641E2C402143FB
:105310003046BDE8704009F0F0BE00002E2E2F444C
:105320007269766572732F53544D333246347878F0
:105330005F48414C5F4472697665722F5372632FE8
:1053400073746D3332663478785F68616C5F636F55
:10535000727465782E6300000CED00E010B5044611
:1053600007280BD0062C09D0052C07D0042C05D01B
:10537000032C03D0902108A00BF066F8154904F027
:10538000070208684FF6FF03184040EA0220124A5D
:105390001043086010BD00002E2E2F447269766500
:1053A00072732F53544D3332463478785F48414CF2
:1053B0005F4472697665722F5372632F73746D3315
:1053C00032663478785F68616C5F636F7274657899
:1053D0002E6300000CED00E00000FA057047006845
:1053E000416200207047F0B50368586A39B19C6A81
:1053F0004FF4827600EB144400204D1E0AE040EA90
:10540000024098620FE006EB8007DF59401C04EB76
:105410001744C0B2A842F6D344EA02404FF4807267
:1054200002EB810158500020F0BDD0F8080508F0CB
:1054300089BC01EBC10200EB8202D0F80805D26CF6
:1054400008F0DEBB01EBC10200EB8202D0F80805D8
:10545000D2F88C2208F02FBCD0F8080508F074BCF4
:105460000A0601F00F0101EBC10100EB810101D53A
:105470003C3101E001F51F71006809F0A9BB70B56E
:1054800004460B0601F00F0000EBC00104EB8101A4
:105490004FF001024FF0000503D581F83D203C316B
:1054A00003E081F87D5201F51F71087094F8BC0487
:1054B000012808D084F8BC24206809F043F884F857
:1054C000BC54002070BD022070BD70B5044601F0D0
:1054D0000F006268904201D9012070BD0B0601F0F7
:1054E0000F0101EBC10104EB81014FF001024FF00C
:1054F000000503D581F83D203C3103E081F87D5261
:1055000001F51F718D70087094F8BC04012808D053
:1055100084F8BC24206809F011FA84F8BC540020F7
:1055200070BD022070BD01F00F0101EBC10100EB65
:105530008100D0F89C0270472DE9F04104460F0627
:1055400001F00F0000EBC00104EB81014FF00106F8
:105550004FF0000503D581F83D603C3103E081F850
:105560007D5201F51F710870CA600B714A7802B153
:105570000881022B00D14D7194F8BC04012809D098
:1055800084F8BC64206808F035FF284684F8BC54D1
:10559000BDE8F0810220FBE770B50C4601F00F0575
:1055A00005EBC50100EB8101C1F89432C1F88C22F2
:1055B0000023C1F89C3281F87D3281F87C52036966
:1055C00001F51F71012B00D14A612207027C00689E
:1055D00003D009F00BFA002070BD09F0F5F8FAE7E6
:1055E00070B504460D4601F00F006168884201D98C
:1055F000012070BD29064FF000064FF0010207D5CB
:1056000000EBC00104EB810181F83D203C3107E053
:1056100005EBC50104EB810181F87D6201F51F7185
:105620008A70087094F8BC04012807D084F8BC2460
:10563000206809F0AFF9280702D007E0022070BD0A
:10564000217C04F2C442206809F04CF984F8BC645F
:10565000002070BD70B50C4601F00F0505EBC501CB
:1056600000EB81014B65CA640023CB65012381F8FF
:105670003D3001F83C5F0369012B00D14A612207EC
:10568000027C006803D009F0B1F9002070BD09F078
:105690009BF8FAE72DE9FC5F05680446284609F007
:1056A00038FB00287DD1206809F072FB002878D0F3
:1056B000D5F80808C0F30D20C4F8FC04206809F0F0
:1056C00067FB800704D52068416901F00201416150
:1056D000206809F05DFBC10604F2C440009034D597
:1056E0002068816921F0100181612F6A07F00F00A5
:1056F00000EBC00004EB8006C7F3434006F51F76BD
:10570000022802D0062811D01AE047F6F0700742AE
:1057100016D0C7F30A1217462846316909F03CFB38
:10572000306938443061306A384408E0082228463D
:10573000009909F031FB306AC7F30A11084430625E
:105740002068816941F010018161206809F020FB27
:1057500000034FF0080B4FF0000A4FF001097CD511
:105760000026206809F0F3FA074674E0F80770D0C5
:10577000F1B2206809F004FB8046C00707D005EBB2
:105780004611C1F8089B3146204605F061FD5FEAED
:10579000087024D505EB4611C1F808BB2068016CE0
:1057A00000E025E200EB46100191D0F8082BFC4BFD
:1057B000994205D9110403D54FF40041C0F8081BE4
:1057C000204600F02FFBF6490198884207D920694E
:1057D000012804D120680121009A09F083F85FEACA
:1057E000C86004D505EB46111020C1F8080B5FEA2C
:1057F00088701DD56869000605D5D5F8040840F401
:105800008061C5F8041806EBC60004EB800090F830
:105810007F1200F51F70012905D180F803A0F1B2B5
:10582000204600F0EBF905EB46110220C1F8080B09
:105830005FEA886004D505EB46102021C0F8081BFC
:105840005FEA884005D505EB46104FF40051C0F8DB
:10585000081B7F08761C002F88D1206809F098FA71
:1058600040036FD5206809F06BFA0746002667E011
:10587000F80763D0F1B2206809F070FA8046C007DB
:1058800023D006F00F0209FA02F0D5F8342882433B
:10589000C5F8342805EB4610C0F80899206901289E
:1058A0000FD106EBC60004EB8000D0E912211144B1
:1058B000C16436B9606D20B920680121009A09F0F1
:1058C00011F8F1B22046FFF7B4FD5FEA087003D586
:1058D00005EB4611C1F808B95FEAC86004D505EBCD
:1058E00046111020C1F808095FEA486004D505EBAD
:1058F00046104021C0F808195FEA887017D5314674
:10590000284609F0D9F906EBC60004EB800090F8B0
:105910003F103C30012905D180F803A0F1B22046A8
:1059200000F068F905EB46110220C1F808095FEAAA
:10593000086003D53146204605F0F0FC7F08761C50
:10594000002F95D1206809F023FA002811DAD5F844
:10595000040820F00101C5F8041894F8F4040128A3
:105960002BD0204600F042FA2068416901F0004146
:105970004161206809F00CFA00050BD5D5F808083C
:10598000C00702D0204600F075FA2068416901F492
:1059900000614161206809F0FBF9C00466D5D5F8C3
:1059A000040820F00100C5F804081021206809F05F
:1059B00083F900214FF67F321FE084F8F4A4002120
:1059C0002046FFF70BFDCFE705EB4110C0F8082993
:1059D000D0F8003923F40013C0F80039C0F8082BC0
:1059E000D0F8003B23F40013C0F8003BD0F8003B94
:1059F00043F00063C0F8003B491C60688842E3D86C
:105A0000D5F81C0840F00111C5F81C18206B0028BF
:105A100028460DD0D0F8840840F00B01C5F8841852
:105A2000D5F8440840F00B012846C5F844180DE0AD
:105A3000D0F8140842F22B010843C5F81408D5F831
:105A4000100840F00B012846C5F81018D0F80008DF
:105A500020F4FE61C5F80018217C2068009A08F047
:105A600041FF2068416901F480514161206809F0DB
:105A70008FF9800415D5206808F0FCFC206809F037
:105A80003BF9E06000F0B2FC0146227B206809F09F
:105A9000E1F9204600F094F92068416901F40051D1
:105AA0004161206809F074F9000707D5204600F02D
:105AB000A1F92068416901F008014161206809F0FD
:105AC00067F9000616D5A86920F08000A8610126B4
:105AD0000DE000BF06EBC60004EB800090F87F02EB
